:020000040800F2
:100000008006002089010008910100089301000882
:100010009501000897010008990100080000000000
:100020000000000000000000000000009B0100082C
:100030009D010008000000009F0100082D0300083A
:10004000A3010008A3010008A3010008A301000800
:10005000A3010008A3010008A3010008A3010008F0
:10006000A3010008A3010008A3010008A3010008E0
:10007000A3010008A3010008A3010008A3010008D0
:10008000A3010008A3010008A3010008A3010008C0
:10009000A3010008A3010008A3010008A3010008B0
:1000A000A3010008A3010008A3010008A3010008A0
:1000B000A3010008A301000800000000A30100083C
:1000C000A30100080000000000000000A3010008D8
:1000D00000000000A3010008A301000800000000C8
:1000E000A3010008A3010008A301000800F002F822
:1000F00000F03AF80AA090E8000C82448344AAF188
:100100000107DA4501D100F02FF8AFF2090EBAE885
:100110000F0013F0010F18BFFB1A43F0010318473B
:100120006004000080040000103A24BF78C878C141
:10013000FAD8520724BF30C830C144BF04680C60ED
:10014000704700000023002400250026103A28BF35
:1001500078C1FBD8520728BF30C148BF0B60704739
:100160001FB51FBD10B510BD00F031F81146FFF7E7
:10017000F7FF00F057F900F04FF803B4FFF7F2FF74
:1001800003BC00F057F800000948804709480047C1
:10019000FEE7FEE7FEE7FEE7FEE7FEE7FEE7FEE737
:1001A000FEE7FEE704480549054A064B7047000094
:1001B0003D030008ED0000088000002080060020BC
:1001C000800200208002002070477047704775460B
:1001D00000F02CF8AE4605006946534620F00700B3
:1001E000854618B020B5FFF7DDFFBDE820404FF091
:1001F00000064FF000074FF000084FF0000B21F011
:100200000701AC46ACE8C009ACE8C009ACE8C009DD
:10021000ACE8C0098D46704710B50446AFF30080C6
:100220002046BDE81040FFF7A8BF00000048704717
:100230001C00002001491820ABBEFEE7260002008A
:10024000704710B500F002F810BD00000CB500209A
:10025000019000903348006840F4803031490860D4
:1002600000BF3048006800F4003000900198401C46
:100270000190009818B90198B0F5A06FF1D1294804
:10028000006800F4003010B10120009001E000206F
:1002900000900098012843D12348006840F01000E6
:1002A000214908600846006820F0030008600846FD
:1002B000006840F0020008601A4840681949486028
:1002C0000846406848600846406840F480604860DE
:1002D0000846406820F47C1048600846406840F4B6
:1002E000E81048600846006840F08070086000BF71
:1002F0000C48006800F000700028F9D009484068F8
:1003000020F00300074948600846406840F00200BA
:10031000486000BF0348406800F00C000828F9D18D
:100320000CBD00000010024000200240024800689E
:10033000401C0149086070470400002010B51348B4
:10034000006840F001001149086008464068104903
:1003500008400E494860084600680E4908400B49AD
:1003600008600846006820F480200860084640685D
:1003700020F4FE0048604FF41F008860FFF761FF23
:100380004FF000600449086010BD000000100240FA
:100390000000FFF8FFFFF6FE08ED00E010B5104882
:1003A000006840F2E731B0FBF1F04FF0E021486126
:1003B00048170F21002804DB0A07130E094A1354BB
:1003C00006E00A07140E084A00F00F031B1FD4545E
:1003D00000BF00204FF0E02188610620086110BDB9
:1003E0000800002000E400E018ED00E04FF0E021FC
:1003F000096941F001014FF0E02211610021084A32
:10040000116000BF064909688142FBD34FF0E0212B
:10041000096921F001014FF0E022116170470000ED
:1004200004000020FFF7BAFF00F026F800F04CF8B7
:100430001CE00F48008800F57A600D4908800846E6
:1004400000880C4908800520FFF7D0FF0848008885
:1004500042F6DF61884209DD002005490880084630
:100460000088044908800520FFF7C0FFE1E700008D
:10047000000000203C0400401048806940F0080063
:100480000E4988610846806940F0010088610C4887
:10049000006800200A4908600A200860094840688E
:1004A00040F40060074948600846406820F48060D6
:1004B0004860012002491031086070470010024076
:1004C000000C0140000001402B48C06940F00200D0
:1004D0002949C8612948008820F040002749088040
:1004E0000846008820F0200008800846008840F078
:1004F000800008800846008820F010000880084628
:10050000008820F00100088000201C491831088074
:100510001A4930310880012018492831088042F6F4
:10052000DF60091D088015482030008820F4007025
:100530001249203108800846008840F48070088005
:10054000081F008820F01000091F08800846008856
:1005500040F0200008800846008840F040000880F5
:10056000002006493C3108800448008840F0010022
:10057000024908807047000000100240000400405B
:10058000A0050008000000201C0000002801000851
:10059000BC0500081C00002064060000440100089F
:1005A000000000000000000000A24A04000000005B
:0C05B00000000000010203040607080917
:040000050800018965
:00000001FF
